:020000040800F2
:1000000078CF0020450100087D260008D1140008A3
:1000100079260008790A0008B541000800000000B0
:100020000000000000000000000000005D3B000830
:10003000ED0D000800000000B5270008E13C0008B5
:100040005F0100085F0100085F0100085F01000810
:100050005F0100085F0100085F0100085F01000800
:100060005F0100085F0100085F0100085F010008F0
:100070005F0100085F0100085F0100085F010008E0
:100080005F0100085F0100085F0100085F010008D0
:100090005F0100085F0100085F0100085F010008C0
:1000A0005F0100085F0100085F0100085F010008B0
:1000B0005F0100085F0100085F0100085F010008A0
:1000C0005F0100085F0100085F0100085F01000890
:1000D0005F0100085F0100085F010008553D00084E
:1000E0005F0100085F0100085F0100085F01000870
:1000F0005F0100085F0100085F0100085F01000860
:100100005F0100085F0100085F0100085F0100084F
:100110005F0100085F0100085F0100085F0100083F
:100120005F0100085F0100085F0100085F0100082F
:10013000DFF80CD000F076FC00480047419C000836
:1001400078CF00200648804706480047FEE7FEE7D4
:10015000FEE7FEE7FEE7FEE7FEE7FEE7FEE7FEE777
:10016000ED3C0008310100082DE9F05F0546002054
:1001700092469B4688460646814640241BE0284618
:1001800041464746224600F060FA53465A46C01A96
:10019000914110D311461846224600F047FA2D1A15
:1001A00067EB01084F4622460120002100F03EFA8D
:1001B00017EB00094E41201EA4F10104DFDC484684
:1001C00031462A464346BDE8F09F10B5431A934294
:1001D00009D28318881803E010F8011D03F8011DE7
:1001E000521EF9D210BD40EA01039B0703D009E07B
:1001F00008C9121F08C0042AFAD203E011F8013B13
:1002000000F8013B521EF9D210BDD2B201E000F855
:10021000012B491EFBD270470022F6E710B51346AA
:100220000A4604461946FFF7F0FF204610BD421E5D
:1002300012F8013F002BFBD111F8013B02F8013B02
:10024000002BF9D1704730B505462A460B4612F807
:10025000010B13F8014B08B1A042F8D01CB10028E3
:1002600002D06D1CF1E7284630BD10B5044604E00D
:100270000B7800F8013B03B1491C521EF8D220460E
:1002800010BDCAB2401E10F8011F8A4202D00029D8
:10029000F9D100207047421C10F8011B0029FBD146
:1002A000801A704710B5002200E0521C835C8C5C01
:1002B000A34201D1002BF8D1D8B2E1B2401A10BD4F
:1002C000034611F8012B00F8012B002AF9D118463A
:1002D000704730B505460020034600E05B1C9342A2
:1002E00005D2EC5CC85C201A01D1002CF6D130BDDF
:1002F000F0B480EA0102D40F4200B2EB410F02D207
:100300000246084611464A0042D0C30DDDB2C1F391
:10031000C752AD1A202D35DAC1F3160141F400029F
:1003200004B15242C5F1200602FA06F12A411044F6
:10033000B3EBD05F23D0C4B1012DA0EBC35009DCD7
:10034000F0BC4FF0004202EAC352DBB200F50000FD
:1003500000F094B9400000F1807000EBC350A0F1B0
:10036000807040EAD170490009E0490841EAC07153
:10037000A0EBC35000F50000400800EBC350F0BCF8
:1003800000F073B96142012202EB4101001BF6E764
:10039000F0BC704781F00041AAE780F00040A7E779
:1003A00080EA010210B502F00043400022D04A006A
:1003B0001FD0010E01EB1261C0F35600C2F35602CA
:1003C00040F4000042F40002A0FB022000047F3948
:1003D000140400D0401C50EA124001D44000491ED1
:1003E000C2B20C0604EBD010401C4008802A02D098
:1003F00003E0002010BD20F00100002900DA0020F9
:10040000184310BD30B480EA010202F0004530F01C
:10041000004221F0004013D090B1C30DD40DC2F3BF
:100420001601C0F31600E41A41F4000140F4000282
:100430007D34914201D3641C00E04900002C02DAB3
:1004400030BC002070474FF400000023914201D3DC
:10045000891A034340084FEA4101F7D151B1914253
:1004600002D14FF0004105E002D24FF0010101E05E
:100470006FF0010103EBC450284430BC00F0F5B824
:100480002DE9F04D81EA030404F0004B21F0004512
:1004900014464FF0000A23F0004150EA050220D034
:1004A00054EA01021DD0C5F30A570246C5F31303EF
:1004B000C1F31300C1F30A5640F4801543F48013CE
:1004C000A7EB0608101BD64608F2FD3873EB0500B3
:1004D00002D308F1010801E092185B41B8F1000F66
:1004E00003DA00200146BDE8F08D00204FF48011B2
:1004F000064684460EE0171B73EB050705D3121B57
:1005000063EB050306434CEA010C49084FEA30004F
:1005100092185B4150EA0107EDD152EA030012D074
:1005200082EA040083EA0501084305D0101BAB41B1
:1005300006D20122002306E000224FF0004302E031
:100540006FF0010253101AEB06004CEB085110EB50
:100550000A0041EB0B01BDE8F04D00F0BDB80028EA
:1005600001DBC0F10040002901DBC1F10041814203
:1005700001D80120704700207047002801DBC0F13E
:100580000040002901DBC1F10041814201D201207C
:10059000704700207047002801DBC0F100400029AF
:1005A00001DBC1F10041814201D3012070470020ED
:1005B0007047C10F80EAE0700844CA079623002103
:1005C00000F05CB896230022114600F057B800F006
:1005D000004220F00040C10DC0F3160040F40000BE
:1005E0007F2901DA00207047962903DCC1F19601CA
:1005F000C84001E096398840002AF4D04042704754
:1006000030B50B46014600202022012409E021FAE2
:1006100002F59D4205D303FA02F5491B04FA02F5DF
:100620002844151EA2F10102F1DC30BD202A04DBB2
:10063000203A00FA02F1002070479140C2F12003F5
:1006400020FA03F3194390407047202A04DB203A34
:1006500021FA02F00021704721FA02F3D040C2F1E2
:10066000200291400843194670470029A8BF7047EF
:10067000401C490008BF20F00100704710B4B0FAD8
:1006800080FC00FA0CF050EA010404BF10BC704773
:1006900049B1CCF1200421FA04F411FA0CF118BF8D
:1006A000012121430843A3EB0C01CB1D4FEA00615C
:1006B0004FEA102042BF002010BC704700EBC3502F
:1006C00010440029A4BF10BC7047401C490008BF5B
:1006D00020F0010010BC704710B5141E73F1000427
:1006E00008DA401C41F1000192185B411A4301D124
:1006F00020F0010010BD2DE9F04D92469B4611B14E
:10070000B1FA81F202E0B0FA80F220329046FFF7AF
:100710008DFF04460F4640EA0A0041EA0B015346AA
:100720005A46084313D0114653EA010019D0C8F1C4
:1007300040025046FFF789FF05460E46504659468F
:100740004246FFF773FF084305D0012004E020462E
:100750003946BDE8F08D0020054346EAE0762C439B
:1007600037430A986305E40AA0EB08000022FD0A5B
:1007700044EA47540A3002D500200146E9E7010562
:1007800010196941DDE9084500196941BDE8F04DDE
:10079000A2E72DE9FE4F804681EA0300C00F0C4618
:1007A000009021F0004123F00045B8EB0200A94180
:1007B00005D24046214690461C460B46024623F091
:1007C0000040104347D0270DC7F30A00C3F30A5176
:1007D0000290401A019040286BDAC3F3130040F4F2
:1007E000801B0098924620B10023D2EB030A63EBF2
:1007F0000B0B01985946C0F140025046FFF716FF17
:1008000006460D4650465946019A00F023F910EB72
:1008100008006141002487EA115284EAE7731A4311
:1008200040D0009A62B3019A012A4FEA075215DCC0
:10083000001B61EB02014FF0004202EA0752CDE9D2
:100840000042001C41F5801132462B46FFF753FF52
:1008500003B0BDE8F08F40462146F9E7001B61EB8D
:100860000201001C41F5801300185B412018A2F51D
:10087000001747EB030140EAD570B6196D4111E04E
:100880006D084FEA360645EAC0754FEA0752001B6D
:1008900061EB0201001C41F5801149084FEA30006C
:1008A0000019514132462B4603B0BDE8F04FFFF727
:1008B00013BF0098012240000023D0EB020263EB3B
:1008C000E073009821464FEAE074B8EB000061EB5A
:1008D0000401E9E783F000435BE781F0004158E75A
:1008E0002DE9FE4F81EA030404F0004421F00041A9
:1008F00000944FF0000B23F0004350EA01045ED057
:1009000052EA03045BD0C3F30A54C1F30A552C44E2
:10091000A4F2F3340194A0FB0254C1F3130141F497
:100920008011C3F3130343F4801301FB024400FB63
:10093000034E840A970A44EA815447EA8357A4FB8A
:10094000076802958D0A05FB07854FEA932C04FB87
:100950000C542705029D4FEA065847EA1637B5EBB7
:1009600008056EEB070C870E920E47EA811742EAE4
:100970008312A7FB0201B6EB0B0164EB00042B0D05
:1009800043EA0C335E1844EB1C50DA465146E7FB51
:100990000201C5F313044FEA0B3343EA14534FEA41
:1009A0000432019C43EA0603A4F10C040294009C67
:1009B000CDE900B4FFF79FFE03B0BDE8F08F002043
:1009C0000146F9E7C1F30A52C1F3130140F2FF33C4
:1009D00041F480119A4202DA00200146704740F249
:1009E00033439A42A2F2334202DC5242FFF72DBE59
:1009F000FFF71CBE30B5041E71F1000404DB4FF09C
:100A00000044404264EB0101141E73F1000405DB55
:100A10001C464FF00043524263EB0403994208BF67
:100A2000904230BD1CB50948009009480190054628
:100A3000009C06E0E06840F0010394E80700984756
:100A40001034AC42F6D3FFF777FB0000B46902081C
:100A5000D4690208202A06DBCB17203A41FA02F0BB
:100A600043EAE07306E041FA02F3D040C2F120020B
:100A70009140084319467047FFE7FEE780B584B010
:100A800000208DF80E004FF480300290FFE70299AD
:100A90000020019041B1FFE7802002F0FDF8B0FA9C
:100AA00080F040090190FFE70198C00720B1FFE7FF
:100AB000029801380290EAE7029840B9FFE7032064
:100AC0008DF80E009DF80E008DF80F0008E040F242
:100AD000FF5002F061F89DF80E008DF80F00FFE75F
:100AE0009DF80F0004B080BD81B08DF80300FFE7D2
:100AF00048F23400C4F20100006810F0450F01D143
:100B0000FFE7F5E748F23801C4F2010140F2FF5077
:100B1000086048F21400C4F20100006800F0080008
:100B200001B0704780B582B000208DF8060048F211
:100B30003400C4F2010000680090FFE79DF8000057
:100B400010F0450F07D1FFE748F23400C4F201006E
:100B500000680090F2E79DF80000400700280BD5E0
:100B6000FFE703208DF80600042002F015F89DF839
:100B700006008DF8070018E09DF80000C00750B18E
:100B8000FFE701208DF8060002F006F89DF8060048
:100B90008DF8070009E0FFE740F2FF5001F0FCFF8D
:100BA0009DF806008DF80700FFE79DF8070002B0EA
:100BB00080BD000080B582B000208DF8060048F2AC
:100BC0003400C4F2010000680090FFE79DF80000C7
:100BD00010F0450F07D1FFE748F23400C4F20100DE
:100BE00000680090F2E79DF80000400700280BD550
:100BF000FFE703208DF80600042001F0CDFF9DF8EB
:100C000006008DF8070008E040F2FF5001F0C4FF35
:100C10009DF806008DF80700FFE79DF8070002B079
:100C200080BD000080B586B08DF8160004910020CC
:100C30008DF80F0048F23400C4F201000068029001
:100C4000FFE79DF8080010F0450F07D1FFE748F2D5
:100C50003400C4F2010000680290F2E79DF8080039
:100C6000400700280BD5FFE703208DF80F00042074
:100C700001F092FF9DF80F008DF8170058E09DF8E5
:100C80000800C00750B1FFE701208DF80F0001F008
:100C900083FF9DF80F008DF8170049E0FFE701F092
:100CA000F3FF9DF81610884208D0FFE710208DF85A
:100CB0000F009DF80F008DF8170039E040F2FF504B
:100CC00001F06AFF002002F009F801909DF805008C
:100CD00010F0E00F09D1FFE7BDF806000499088085
:100CE0009DF80F008DF8170022E09DF805008006A2
:100CF000002804D5FFE713208DF8170018E09DF8B1
:100D000005004006002804D5FFE710208DF81700E5
:100D10000EE09DF805000006002804D5FFE70F202F
:100D20008DF8170004E09DF80F008DF81700FFE71D
:100D30009DF8170006B080BD80B584B000208DF806
:100D40000E004FF48030019048F23400C4F20100EC
:100D500000680290FFE700209DF8081011F0450F91
:100D6000009006D1FFE70198002818BF01200090ED
:100D7000FFE70098C00750B1FFE7019801380190E4
:100D800048F23400C4F2010000680290E3E70198E1
:100D900030B1FFE79DF80800400700280BD5FFE7BA
:100DA00003208DF80E00042001F0F6FE9DF80E00E1
:100DB0008DF80F0015E09DF80800400600280BD5BF
:100DC000FFE700208DF80E00402001F0E5FE9DF8C1
:100DD0000E008DF80F0004E09DF80E008DF80F0056
:100DE000FFE79DF80F0004B080BD000070470000D1
:100DF00082B001908DF803109DF8030050B1FFE719
:100E0000019A4FF0204151F8220040F0010041F8D2
:100E100022000CE0019A4FF0204151F822004FF6D9
:100E2000FE73C0F20F03184041F82200FFE702B042
:100E30007047000080B582B00190019900910A6866
:100E40004868D1F808C0CB6840EA0C0018430B6929
:100E500018434B6918438B691843CB6918430B6AD5
:100E600018434B6A18438B6A1843CB6A1843096BC3
:100E700008434FF0204141F822000198806808287B
:100E80000BD1FFE7019802684FF0204151F8220092
:100E900040F0400041F82200FFE701980268416BF2
:100EA0000868D1F804E0D1F808C0CB6840EA0E1019
:100EB00040EA0C2040EA03400B6940EA03504B69CA
:100EC00040EA0360896908430421CAF2000141F83D
:100ED00022000198C06AB0F5804F1BD1FFE701984E
:100EE0000268816B0868D1F804E0D1F808C00B698A
:100EF00040EA0E1040EA0C2040EA03504B6940EAF9
:100F000003608969084340F20411CAF2000141F804
:100F100022000AE00198026840F20411CAF20001BE
:100F20006FF0704041F82200FFE702B080BD000082
:100F300080B58CB0ADF82C000A91002109918DF894
:100F400023100791069140F27010C2F200000822AF
:100F5000026010220592426040228260C1604FF41C
:100F60008061016101F0F8FE0598FFF7BDFD8DF885
:100F700023009DF8230028B1FFE79DF823008DF89A
:100F80002F00E3E040F21010C2F2000000680104FC
:100F900040F27010C2F200000160372104914160FC
:100FA000402181600021C1604FF48061016101F046
:100FB000D3FE0498FFF798FD8DF823009DF82300D9
:100FC00028B1FFE79DF823008DF82F00BEE040F226
:100FD0008410C2F200004FF0FF310160082141602F
:100FE000302181600221C160002102910161012153
:100FF000416101F0E7FD029940F27010C2F2000079
:10100000016033220392426040228260C1604FF44B
:101010008061016101F0A0FE0398FFF765FD8DF886
:1010200023009DF8230028B1FFE79DF823008DF8E9
:101030002F008BE0FFE748F23400C4F201000068A3
:1010400040F22A61084216D1FFE74FF4001001F088
:1010500023FE78B1FFE701F079FE099A06A941F86D
:1010600022000998013009900998022801D3FFE76E
:1010700001E0FFE7DFE7082001F00EFE58B1FFE7CF
:10108000082001F089FD04208DF823009DF823003D
:101090008DF82F005AE0022001F0FEFD60B1FFE75D
:1010A0000220019001F078FD01988DF823009DF851
:1010B00023008DF82F0049E0202001F0EDFD58B10C
:1010C000FFE7202001F068FD06208DF823009DF841
:1010D00023008DF82F0039E04FF4007001F0DCFDA3
:1010E00060B1FFE74FF4007001F056FD07208DF866
:1010F00023009DF823008DF82F0027E0FFE7FFE78E
:10110000FFE740F2FF5001F047FD0699080601F4A1
:101110007F4240EA022001F47F0240EA122040EAC6
:1011200011600A9948600799080601F47F4240EA75
:10113000022001F47F0240EA122040EA11600A997D
:1011400008609DF823008DF82F00FFE79DF82F0021
:101150000CB080BD80B584B030200121029101F037
:1011600063FB4FF4F850ADF80C0003208DF80E002F
:1011700018208DF80F0041F20000C4F2010003A90D
:10118000019100F015F801990420ADF80C0041F22E
:101190000040C4F2010000F00BF802994FF48060A7
:1011A00001F00AFB0299022001F006FB04B080BDA9
:1011B00088B007900691002005900490039002905B
:1011C000019000900698C07800F00F0005900698F6
:1011D000C078C006002806D5FFE7069881780598F4
:1011E00008430590FFE70698007800284BD0FFE7FA
:1011F00007980068019000200390FFE703980728F4
:101200003DD8FFE7039901208840029006980088A6
:101210000299084004900498029988422AD1FFE775
:1012200003988000029002990F2088400090009956
:101230000198884301900598029900FA01F10198FC
:10124000084301900698C078282806D1FFE7039943
:1012500001208840079948610BE00698C07848282B
:1012600006D1FFE703990120884007990861FFE74D
:10127000FFE7FFE7FFE7039801300390BEE701981F
:1012800007990860FFE706980088B0F5807F50DB7B
:10129000FFE707984068019000200390FFE703985C
:1012A000072842D8FFE7039800F108010120884091
:1012B00002900698008802990840049004980299C8
:1012C00088422DD1FFE703988000029002990F20F9
:1012D00088400090009901988843019005980299F0
:1012E00000FA01F10198084301900698C078282877
:1012F00008D1FFE7039800F1080101208840079911
:101300004861FFE70698C078482808D1FFE70398AE
:1013100000F108010120884007990861FFE7FFE715
:10132000FFE7039801300390B9E7019807994860F7
:10133000FFE708B07047000082B00190ADF80210DE
:1013400000208DF8010001988068BDF80210084265
:1013500004D0FFE701208DF8010003E000208DF8A4
:101360000100FFE79DF8010002B0704782B00190D4
:10137000ADF80210BDF802000199486102B0704753
:1013800082B00190ADF80210BDF802000199086129
:1013900002B0704780B5ADF5127D9090ADF83E1269
:1013A00000200690909820B9FFE74FF0FF30919011
:1013B0008AE09099029100200390C8618861486199
:1013C0000861C8608860486008609DF83F028DF839
:1013D0001700BDF83E028DF816009DF81700A128F1
:1013E00005D3FFE79DF81600A02804D8FFE74FF0CB
:1013F000FF30919068E09DF81700A1389DF8162005
:101400005E2100FB01214EF6E030CFF6FF7000EBCD
:101410004110049046F69011C0F6020108A801227E
:1014200007F032FD8DF81F009DF81F0080B1FFE727
:101430009DF81F2046F64510C0F6020046F69011B2
:10144000C0F602010AF080FC4FF0FF3091903BE0C3
:10145000049908A807F0EAFB8DF81F009DF81F000B
:1014600048B9FFE7909908A8202206AB07F07EFD57
:101470008DF81F00FFE708A807F0C4FB9DF81F00C8
:1014800020B9FFE7069820281BD0FFE7BDF83E12E1
:101490009DF81F20069B46F66410C0F602000AF075
:1014A00053FC9099009100200190C86188614861C7
:1014B0000861C8608860486008604FF0FF30919014
:1014C00002E000209190FFE791980DF5127D80BD1C
:1014D000FFE7FEE780B582B08DF807009DF80700B2
:1014E00048B1FFE741F20040C4F201004FF48051DF
:1014F000FFF73CFF08E041F20040C4F201004FF466
:101500008051FFF73DFFFFE702B080BD80B582B09C
:10151000ADF80600ADF80410ADF80220ADF80030CB
:10152000BDF80600BDF80410BDF80220BDF800307B
:1015300000F03CFCBDF80200BDF80010484340F24A
:101540000401C2F20001098800F092FA02B080BDE5
:1015500081B00090FFE7009828B1FFE7FFE700980F
:1015600001380090F7E701B07047000080B584B003
:10157000ADF80E00ADF80C10ADF80A208DF809306A
:101580000020ADF80600BDF80A00ADF80400BDF873
:101590000A100320A0EB4100ADF80200FFE7BDF9FF
:1015A0000600BDF90410884200F32481FFE79DF88E
:1015B0000900002800F08580FFE7BDF80600ADF8BF
:1015C0000000FFE7BDF90000BDF90410884277DC98
:1015D000FFE7BDF80E00BDF806100844BDF80C107A
:1015E000BDF80020114480B289B200F0FDFEBDF8C4
:1015F0000E00BDF80610401ABDF80C10BDF8002012
:10160000114480B289B200F0EFFEBDF80E00BDF8C3
:101610000010401ABDF80C10BDF80620114480B22D
:1016200089B200F0E1FEBDF80E00BDF80010401ACE
:10163000BDF80C10BDF80620891A80B289B200F0FE
:10164000D3FEBDF80E00BDF80610401ABDF80C1010
:10165000BDF80020891A80B289B200F0C5FEBDF83D
:101660000E00BDF806100844BDF80C10BDF80020AF
:10167000891A80B289B200F0B7FEBDF80E00BDF83D
:1016800000100844BDF80C10BDF80620891A80B27D
:1016900089B200F0A9FEBDF80E00BDF800100844A4
:1016A000BDF80C10BDF80620114480B289B200F0DC
:1016B0009BFEFFE7BDF800000130ADF8000081E7B8
:1016C00070E0BDF80E00BDF806100844BDF80C101F
:1016D000BDF80420114480B289B200F085FEBDF847
:1016E0000E00BDF80610401ABDF80C10BDF804201D
:1016F000114480B289B200F077FEBDF80E00BDF84B
:101700000410401ABDF80C10BDF80620114480B238
:1017100089B200F069FEBDF80E00BDF80410401A51
:10172000BDF80C10BDF80620891A80B289B200F00D
:101730005BFEBDF80E00BDF80610401ABDF80C1097
:10174000BDF80420891A80B289B200F04DFEBDF8C0
:101750000E00BDF806100844BDF80C10BDF80420BA
:10176000891A80B289B200F03FFEBDF80E00BDF8C4
:1017700004100844BDF80C10BDF80620891A80B288
:1017800089B200F031FEBDF80E00BDF80410084427
:10179000BDF80C10BDF80620114480B289B200F0EB
:1017A00023FEFFE7BDF806000130ADF80600BDF9E5
:1017B0000200B0F1FF3F0ADCFFE7BDF80610BDF8FC
:1017C000020000EB81000630ADF8020011E0BDF828
:1017D0000600BDF80410411ABDF8020000EB8100BC
:1017E0000A30ADF80200BDF804000138ADF804007D
:1017F000FFE7D4E604B080BD80B58CB0ADF82E0014
:10180000ADF82C10ADF82A20ADF828300020079054
:101810000690BDF82A00BDF82E10401A0590BDF8BC
:101820002800BDF82C10401A0490BDF82E00ADF829
:101830002400BDF82C00ADF822000598012803DB38
:10184000FFE7012002900DE0059818B9FFE700209E
:10185000029006E04FF0FF3002900598404205905C
:10186000FFE7FFE70498012803DBFFE70120019071
:101870000DE0049818B9FFE70020019006E04FF052
:10188000FF300190049840420490FFE7FFE705987D
:101890000499884203DDFFE70598039002E004986D
:1018A0000390FFE70020ADF82600FFE7BDF8260013
:1018B00003990131884235DCFFE7BDF82400BDF80B
:1018C000221000F091FD05990798084407900499AB
:1018D0000698084406900798039988420BDDFFE7B5
:1018E00003990798401A07900299BDF8240008440C
:1018F000ADF82400FFE70698039988420BDDFFE767
:1019000003990698401A06900199BDF822000844F0
:10191000ADF82200FFE7FFE7BDF826000130ADF883
:101920002600C3E70CB080BD80B584B0844606981D
:10193000ADF80EC0ADF80C10ADF80A20ADF80830C7
:101940008DF807009DF80700B8B1FFE7BDF80E005D
:10195000BDF80C10BDF80A20BDF8083000F026FADA
:10196000BDF80A00BDF80810484340F20411C2F265
:101970000001098800F07CF83AE0BDF80E00BDF8DF
:101980000C30BDF80A10014401398AB21946FFF73C
:1019900033FFBDF80E00BDF80C10BDF8082011444F
:1019A0000139BDF80A200244013A92B28BB21946BD
:1019B000FFF722FFBDF80E20BDF80C10BDF808009F
:1019C0000844013883B21046FFF716FFBDF80E0039
:1019D000BDF80A100844421EBDF80C10BDF80800FE
:1019E0000844013892B283B21046FFF705FFFFE7C3
:1019F00004B080BD80B59AB00BA801903C21FEF7E1
:101A00000BFC002002900A90099008900790069025
:101A1000059004904FF480700121039100F0CCFEFA
:101A200001980299039A0492042206924FF0805280
:101A30000A9205910791089109910B910C91082246
:101A40000D9210220E920F911191129113914FF459
:101A50008052149215911691179104A91891199119
:101A6000FFF7E8F902980399FFF7C2F91AB080BDB1
:101A700080B584B00390ADF80A100020009001906A
:101A80002C2000F0DDFC00980190FFE701980399FD
:101A9000884209D2FFE7BDF80A0000F0DBFCFFE74F
:101AA000019801300190F1E704B080BD80B592B09B
:101AB00060200121019100F0B7FE03200D908DF808
:101AC0004600182007908DF847004FF480400290A0
:101AD000ADF8440041F20040C4F201000F9011A99A
:101AE0001091FFF765FB0F9810994FF40042039295
:101AF000ADF84420FFF75CFB019A0F981099ADF800
:101B00004420FFF755FB0F98109902220A92ADF876
:101B10004420FFF74DFB109980200890ADF8440059
:101B200041F60000C4F201000B90FFF741FB0B9857
:101B300010994FF480720492ADF84420FFF738FBFF
:101B40000B9810994FF400720592ADF84420FFF7FE
:101B50002FFB0B9810994FF480620692ADF8442049
:101B6000FFF726FB0B9810994FF400620992ADF82D
:101B70004420FFF71DFB0B9810994FF480520E92F2
:101B8000ADF84420FFF714FB0B9810994FF4005266
:101B9000ADF84420FFF70CFB029A0B981099ADF8B2
:101BA0004420FFF705FB039A0B981099ADF84420E9
:101BB000FFF7FEFA049A0F981099ADF84420FFF74A
:101BC000F7FA059A0F981099ADF84420FFF7F0FA4C
:101BD000069A0F981099ADF84420FFF7E9FA079A92
:101BE0000D9B0F9810998DF846308DF847201022E4
:101BF0000C92ADF84420FFF7DBFA0F9810992022E1
:101C0000ADF84420FFF7D4FA089A0F981099ADF870
:101C10004420FFF7CDFA099A0F981099ADF84420A7
:101C2000FFF7C6FA0A9A0B98DDF830C00D9B1099A1
:101C30008DF847C08DF84630ADF84420FFF7B8FA6C
:101C4000DDF830C00D9B0E9A0F9810998DF847C0A3
:101C50008DF84630ADF84420FFF7AAFA12B080BDE7
:101C600080B584B08DF80F009DF80F00082801DBC7
:101C7000FFE785E09DF80F0040F20601C2F2000187
:101C800008709DF80F00C00770B9FFE740F2080127
:101C9000C2F20001F020088040F20A01C2F2000105
:101CA0004FF4A07008800DE040F20801C2F200017C
:101CB0004FF4A070088040F20A01C2F20001F02047
:101CC0000880FFE7362000F0BBFB4AF2D800C2F2E2
:101CD0000000008849F24131884207D1FFE79DF8B2
:101CE0000F004001083000F0B5FB10E04AF2D800C8
:101CF000C2F20000008848F25251884206D1FFE744
:101D00009DF80F00400100F0A5FBFFE7FFE72A2048
:101D100000F096FB0020019000F09CFB019800F081
:101D200099FB40F20800C2F20000009000880138E0
:101D3000C0F3072000F08EFB009800880138C0B285
:101D400000F088FB2B2000F07BFB019800F082FB69
:101D5000019800F07FFB40F20A00C2F200000290FE
:101D600000880138C0F3072000F074FB0298008857
:101D70000138C0B200F06EFB2C2000F061FBFFE7E1
:101D800004B080BD80B5FFF791FEFFF733FE012060
:101D9000FFF7A0FB00F0FEFA00F050F840F206005A
:101DA000C2F200000078FFF75BFF80BD80B582B013
:101DB000ADF80600ADF80410ADF80220ADF8003023
:101DC0002A2000F03DFB9DF8070000F043FB9DF842
:101DD000060000F03FFBBDF80600BDF80210084405
:101DE0000138C0F30F2000F035FBBDF80600BDF848
:101DF000021008440138C0B200F02CFB2B2000F088
:101E00001FFB9DF8050000F025FB9DF8040000F085
:101E100021FBBDF80400BDF8001008440138C0F3F0
:101E20000F2000F017FBBDF80400BDF800100844B7
:101E30000138C0B200F00EFB02B080BD80B5A0B08A
:101E400000F04CFA01464AF2D800C2F200000180CC
:101E5000008849F24131884240F02A81FFE7CF20D3
:101E600000F0EEFA00201D9000F0F4FA81200F90AF
:101E700000F0F0FA30201A9000F0ECFAED2000F0BB
:101E8000DFFA642000F0E6FA0320189000F0E2FA8E
:101E9000122000F0DFFA0F9800F0DCFAE82000F0E2
:101EA000CFFA852000F0D6FA1020159000F0D2FA73
:101EB000782000F0CFFACB2000F0C2FA392017903A
:101EC00000F0C8FA2C2000F0C5FA1D9800F0C2FA04
:101ED000342000F0BFFA0620199000F0BBFAF7207A
:101EE00000F0AEFA202000F0B5FAEA2000F0A8FADF
:101EF0001D9800F0AFFA1D9800F0ACFAB12000F088
:101F00009FFA1D9800F0A6FA1B20149000F0A2FA88
:101F1000B62000F095FA0A2000F09CFAA220119059
:101F200000F098FAC02000F08BFA352000F092FA09
:101F3000C12000F085FA11201F9000F08BFAC52017
:101F400000F07EFA4520109000F084FA109800F01E
:101F500081FAC72000F074FA119800F07BFAF220A1
:101F600000F06EFA1D9800F075FA2620129000F02D
:101F700067FA01201E9000F06DFAE02000F060FA90
:101F80000F201B9000F066FA129800F063FA2420EC
:101F900000F060FA0B2000F05DFA0E2000F05AFA13
:101FA0000920139000F056FA542000F053FAA820AC
:101FB00000F050FA462000F04DFA0C2000F04AFAEA
:101FC000172000F047FA139800F044FA1B9800F02D
:101FD00041FA0720169000F03DFA1D9800F03AFAF9
:101FE000E12000F02DFA1D9800F034FA192000F0DD
:101FF00031FA149800F02EFA042000F02BFA15980C
:1020000000F028FA169800F025FA2A201C9000F01B
:1020100021FA472000F01EFA179800F01BFA1898D2
:1020200000F018FA199800F015FA199800F012FA51
:102030001A9800F00FFA382000F00CFA1B9800F004
:1020400009FA362000F0FCF9C82000F003FA1C98C9
:1020500000F0F6F91D9800F0FDF91D9800F0FAF96E
:102060001D9800F0F7F9EF2000F0F4F92B2000F0B4
:10207000E7F91D9800F0EEF91D9800F0EBF91E98B5
:1020800000F0E8F93F2000F0E5F93A2000F0D8F937
:10209000552000F0DFF91F9800F0D2F94BF6FC70E4
:1020A000C0F20200FFF754FA292000F0C9F913E149
:1020B0004AF2D800C2F20000008848F25251884229
:1020C00040F00981FFE7CF2000F0BAF90020079027
:1020D00000F0C0F9C120019000F0BCF9302002905E
:1020E00000F0B8F9ED2000F0ABF9642000F0B2F98F
:1020F000032000F0AFF91220049000F0ABF981202A
:1021000000F0A8F9E82000F09BF9852000F0A2F982
:10211000102000F09FF9782000F09CF9CB2000F00F
:102120008FF9392000F096F92C200E9000F092F9EA
:10213000079800F08FF9342000F08CF90220089005
:1021400000F088F9F72000F07BF9202000F082F9F8
:10215000EA2000F075F9079800F07CF9079800F084
:1021600079F9C02000F06CF9212000F073F9019892
:1021700000F066F911200C9000F06CF9C52000F019
:102180005FF92D200A9000F065F9332000F062F924
:10219000362000F055F9079800F05CF93A2000F07D
:1021A0004FF9552000F056F9B12000F049F9079891
:1021B00000F050F91720059000F04CF9B62000F01F
:1021C0003FF90A2000F046F9A22000F043F9F6207A
:1021D00000F036F90120039000F03CF9029800F07D
:1021E00039F9F22000F02CF9079800F033F9262095
:1021F00000F026F9039800F02DF9E02000F020F916
:10220000D020069000F026F9079800F023F90898EE
:1022100000F020F90720099000F01CF90B2000F0D5
:1022200019F91A2000F016F9312000F013F95420A2
:1022300000F010F9402000F00DF929200D9000F079
:1022400009F9049800F006F9049800F003F90498DD
:1022500000F000F9059800F0FDF8E12000F0F0F83A
:10226000069800F0F7F8079800F0F4F8089800F0E6
:10227000F1F8099800F0EEF8052000F0EBF82520C1
:1022800000F0E8F80A9800F0E5F8442000F0E2F8E1
:10229000452000F0DFF81C200B9000F0DBF8182040
:1022A00000F0D8F8162000F0D5F80B9800F0D2F81E
:1022B0001D2000F0CFF80C9800F0C2F84BF6FC702F
:1022C000C0F20200FFF744F90D9800F0B9F80E983B
:1022D00000F0B6F8FFE7FFE720B080BD80B582B020
:1022E0000020ADF80400042000F0AAF800F04CF83B
:1022F00000F04AF800F048F8ADF80400BDF804001A
:102300000002ADF8040000F03FF80146BDF80400FB
:102310000843ADF80400BDF8040048F25251884269
:1023200005D1FFE7BDF80400ADF8060028E0D32092
:1023300000F086F800F028F800F026F800F024F805
:10234000ADF80400BDF804000002ADF8040000F090
:102350001BF80146BDF804000843ADF80400BDF8C1
:10236000040049F24131884205D1FFE7BDF804007D
:10237000ADF8060004E0FFE70020ADF80600FFE737
:10238000BDF8060002B080BD0020C6F20200008841
:102390007047000080B584B041F60000C4F201002F
:1023A000019002210291FEF7E1FF40F6FF20039029
:1023B000FFF7CEF801980299FEF7E2FF0398FFF7C6
:1023C000C7F804B080BD000080B582B0ADF806004B
:1023D000ADF80410BDF80600BDF8041001231A463C
:1023E000FFF7E4FC02B080BD80B582B0ADF8060016
:1023F000ADF80410BDF8060040F20801C2F2000179
:102400000988884219DAFFE7BDF8040040F20A01A2
:10241000C2F20001098888420FDAFFE7BDF8060022
:10242000BDF80410FFF7D0FF40F20410C2F2000024
:1024300001880120FFF71CFBFFE702B080BD000010
:1024400081B0ADF80200BDF802004FF0C041088035
:1024500001B0704781B0ADF80200BDF80200002164
:10246000C6F20201088001B07047000080B584B058
:1024700014200121019100F0D7F90198ADF80C006A
:1024800048208DF80F0040F60000C4F2010003A9B7
:102490000291FEF78DFE02994FF40050ADF80C004A
:1024A00041F20000C4F20100FEF782FE04B080BDDC
:1024B00080B582B00190ADF802100198BDF802100D
:1024C000FEF73AFFB0FA80F0400902B080BD00008C
:1024D00080B584B00290ADF806100298BDF80610E1
:1024E000FFF7E6FF8DF8050049F60110C2F2000083
:1024F0000090029841F20001C4F2010188420CD11F
:10250000FFE7BDF80600B0F5005F06D1FFE749F62A
:102510000210C2F200000090FFE79DF80500E8B14C
:10252000FFE700980078C8B9FFE741F64010C0F215
:10253000010007F061FB0298BDF80610FFF7B8FF35
:102540008DF805009DF80500009908709DF80500BC
:10255000002818BF01208DF80F0007E09DF8050046
:102560000099087000208DF80F00FFE79DF80F001C
:1025700004B080BD80B540F60000C4F20100012126
:10258000FFF796FF49F60111C2F20001087041F20F
:102590000000C4F201004FF40051FFF789FF49F633
:1025A0000211C2F20001087080BD000081B0ADF8D8
:1025B0000200BDF8020040F20401C2F200010880EE
:1025C00001B0704781B0ADF80200ADF80010BDF861
:1025D000020040F20411C2F200010880BDF80000C0
:1025E00040F20401C2F20001088001B0704700000F
:1025F00081B0ADF80200BDF8020040F20411C2F251
:102600000001088001B0704780B586B00820012124
:10261000029100F009F920200190ADF8140010207B
:102620008DF8170003208DF8160040F60040C4F224
:102630000100039005A90091FEF7BAFD0099029AE6
:102640000398ADF81420FEF7B3FD00990398022219
:102650000492ADF81420FEF7ABFD01990398FEF744
:102660008FFE02990398FEF78BFE03980499FEF7FC
:1026700087FE06B080BD0000FFE7FEE77047000060
:1026800080B582B04FF4C06000F064F831208DF85E
:10269000040000208DF805008DF8060001208DF85B
:1026A000070001A800F002F802B080BD84B00390DA
:1026B0000020029001900F2000900398C078B8B3DA
:1026C000FFE74EF60C50CEF200000068C043C0F3A6
:1026D000022002900298C0F1040001900098029933
:1026E000C840009003984078019988400290039870
:1026F00080780099014002980843029002980001F6
:1027000002900298039909784EF20042CEF200023C
:1027100088540398027802F01F01012088401C2190
:1027200001EAD2014EF20012CEF2000288500EE011
:102730000398027802F01F01012088401C2101EA61
:10274000D2014EF28012CEF200028850FFE704B0B0
:102750007047000081B0009000980021C0F2FA514B
:1027600008434EF60C51CEF20001086001B07047EC
:1027700082B08DF8070000919DF90700B0F1FF3F8E
:102780000CDCFFE7009800019DF8071001F00F0135
:102790004EF61452CEF20002885409E0009800016F
:1027A0009DF907104EF20042CEF200028854FFE776
:1027B00002B070477047000082B001908DF803109E
:1027C0009DF8030048B1FFE7019A41F21401C4F2F9
:1027D000020108681043086008E0019A41F2140100
:1027E000C4F20201086890430860FFE702B0704736
:1027F00082B001908DF803109DF8030048B1FFE707
:10280000019A41F21C01C4F20201086810430860F9
:1028100008E0019A41F21C01C4F2020108689043E9
:102820000860FFE702B0704782B001908DF8031096
:102830009DF8030048B1FFE7019A41F21801C4F284
:10284000020108681043086008E0019A41F218018B
:10285000C4F20201086890430860FFE702B07047C5
:1028600086B005900020049003900290019041F200
:102870000400C4F20200006800F00C000490049808
:10288000009040B1FFE7009804280BD0FFE70098C4
:1028900008280ED047E0059941F20020C0F27A00E6
:1028A000086047E0059941F20020C0F27A00086014
:1028B00040E041F20400C4F20200016801F470112A
:1028C0000391006800F4803002900399022000EB2D
:1028D00091400390029848B9FFE7039840F6001131
:1028E000C0F23D014843059908601BE041F2040035
:1028F000C4F2020000688003002809D5FFE70398AE
:1029000040F60011C0F23D0148430599086008E017
:10291000039841F20021C0F27A014843059908600A
:10292000FFE7FFE706E0059941F20020C0F27A00D8
:102930000860FFE741F20400C4F20200016801F000
:10294000F0010491049909090491049A4CF2706110
:10295000C0F600018A5C0192059B1A68DDF804C08C
:1029600022FA0CF25A60026802F4E0620492049ABD
:10297000120A0492049A8A5C0192059B5A68DDF857
:1029800004C022FA0CF29A60026802F460520492C7
:10299000049AD20A0492049A895C0191059A5168BA
:1029A000019BD940D160006800F440400490049835
:1029B000800B049004994CF26C60C0F60000405CFF
:1029C00001900599C868019AB0FBF2F0086106B061
:1029D0007047000080B588B08DF81E0000208DF88B
:1029E0001D000690059000F079F98001002808D5B7
:1029F000FFE70E208DF81D009DF81D008DF81F00CB
:102A0000C6E040F21010C2F20000008805A9FEF7EF
:102A10008FFA8DF81D009DF81D0028B1FFE79DF885
:102A20001D008DF81F00B3E09DF81E00012858D14D
:102A3000FFE79DF81A00400700284AD5FFE740F25B
:102A40001010C2F200000068010440F27010C2F2DF
:102A50000000016037210491416040218160002124
:102A6000C1604FF48061016100F076F90498FEF7CF
:102A70003BF88DF81D009DF81D0028B1FFE79DF87B
:102A80001D008DF81F0083E040F27010C2F20000BC
:102A900002210160062103914160402181600021F3
:102AA000C1604FF48061016100F056F90398FEF7B0
:102AB0001BF88DF81D009DF81D0028B1FFE79DF85B
:102AC0001D008DF81F0063E09DF81D008DF81F00AC
:102AD0005EE025208DF81D009DF81D008DF81F007B
:102AE00056E09DF81A00C007002849D0FFE740F2E1
:102AF0001010C2F200000068010440F27010C2F22F
:102B00000000016037210291416040218160002175
:102B1000C1604FF48061016100F01EF90298FDF779
:102B2000E3FF8DF81D009DF81D0028B1FFE79DF81B
:102B30001D008DF81F002BE040F27010C2F2000063
:102B40000021016006220192426040228260C16041
:102B50004FF48061016100F0FFF80198FDF7C4FFB8
:102B60008DF81D009DF81D0028B1FFE79DF81D00A0
:102B70008DF81F000CE09DF81D008DF81F0007E088
:102B800025208DF81D009DF81D008DF81F00FFE722
:102B90009DF81F0008B080BD81B00090009848F2F9
:102BA0003801C4F20101086001B0704781B08DF8AE
:102BB00003009DF80300A021C4F23021086001B099
:102BC0007047000082B001900020009001980068DA
:102BD00048F22401C4F2010108600198406848F2FB
:102BE0002801C4F20101086048F22C01C4F201017D
:102BF00008680090009820F0F7000090019A906813
:102C0000D2F80CC01369526940EA0C001843024321
:102C10000098104300900098086002B070470000D0
:102C200048F20001C4F201010020086048F20401EA
:102C3000C4F20101086048F20801C4F20101086011
:102C400048F20C01C4F20101086048F22401C4F208
:102C50000101086048F22801C4F20101086048F24D
:102C60002C01C4F20101086048F23802C4F20102EA
:102C700040F2FF71C0F2C001116048F23C01C4F2A1
:102C8000010108607047000048F21000C4F2010022
:102C90000068C0B27047000082B0019000208DF83B
:102CA000030048F23400C4F20100006801990842B0
:102CB00004D0FFE701208DF8030003E000208DF829
:102CC0000300FFE79DF8030002B0704748F20000E0
:102CD000C4F20100006800F00300704782B0019068
:102CE00000200090019848F21401C4F20101084448
:102CF00000900098006802B07047000010B582B0E4
:102D000001900020009048F20401C4F2010108681B
:102D10000090009847F6FF6290430090019A107D62
:102D20001368D2F804E09468D2F80CC0204340EA5B
:102D30000E0040EA0C001843126902430098104349
:102D400000900098086002B010BD000048F28000BA
:102D5000C4F201000068704782B00190002000902A
:102D60000198006848F20801C4F20101086048F2C5
:102D70000C01C4F2010108680090009840F2FF7253
:102D800090430090019A5068D2F808C0D368126945
:102D900040EA0C001843024300981043009000984A
:102DA000086002B07047000081B0009048F2000156
:102DB000C4F20101086820F003000860009A086866
:102DC0001043086001B0704780B584B000200090C7
:102DD000FFF7ECFE0098FFF7E7FFFFF721FF0099F0
:102DE0004FF48060FFF7E8FC4FF4F850ADF80C00AA
:102DF000042001908DF80F0041F20000C4F20100A0
:102E000003A90291FEF7D4F901980299ADF80C00DC
:102E100041F20040C4F20100FEF7CAF904B080BDDF
:102E200080B584B0029000208DF8070040F20010B9
:102E3000C2F200000068032808D1FFE727208DF8C0
:102E400007009DF807008DF80F0064E040F20010C5
:102E5000C2F20000006880B1FFE740F20010C2F249
:102E600000000068012808D0FFE740F20010C2F21D
:102E700000000068022848D1FFE70298B0F5805FA3
:102E800008D1FFE727208DF807009DF807008DF88F
:102E90000F0040E00298B0F5006F1BD1FFE7012062
:102EA000FFF798FD8DF807009DF8070088B9FFE748
:102EB00040F29C10C2F20000462101750021016021
:102EC000416081604FF40062C2600161FFF716FF4C
:102ED000FFE718E00020FFF77DFD8DF807009DF863
:102EE000070078B9FFE740F29C10C2F200004621CB
:102EF00001750021016041608160C1600161FFF7DF
:102F0000FDFEFFE7FFE7FFE7FFE7FFE79DF80700AC
:102F10008DF80F00FFE79DF80F0004B080BD0000A2
:102F2000B0B582B0019000218DF803108DF8021029
:102F300040F20010C2F200000268019B83F85620A4
:102F400040F21012C2F200021268019BA3F8542052
:102F500040F2F002C2F20002D3788DF802309DF800
:102F600002309B09DDF804C08CF800309DF8023077
:102F7000C3F38303DDF804C08CF801309DF8023000
:102F800003F00303DDF804C08CF8023053888DF899
:102F900002309DF80230DDF804C08CF8033013686D
:102FA0001B0A8DF802309DF80230DDF804C08CF861
:102FB000043013688DF802309DF80230DDF804C04B
:102FC0008CF80530D3798DF802309DF802301B0162
:102FD000DDF804C0ACF80630D3888DF802309DF8D7
:102FE00002E0DDF804C0BCF8063043EA1E13ACF87A
:102FF00006309DF8023003F00F03DDF804C08CF8B2
:1030000008305268120A8DF802209DF80220D20979
:10301000019B5A729DF80220C2F38012019B9A72A2
:103020009DF80220C2F34012019BDA729DF8022043
:10303000C2F30012019B1A73019A5173006840B1E8
:10304000FFE740F20010C2F200000068012876D1CC
:10305000FFE79DF8020000F003008002019908617B
:1030600040F2F000C2F2000041688DF802109DF8B5
:103070000230019A116941EA83011161C17A8DF828
:1030800002109DF80230019A116941EA9311116111
:103090009DF80210C1F3C201019A11759DF802104A
:1030A00001F00701019A517541898DF802109DF8D0
:1030B00002104909019A91759DF80210C1F382012D
:1030C000019AD1759DF8021001F003014900019A9F
:1030D00011768068000A8DF802009DF8022001999F
:1030E000087E40EAD2100876019800690130019903
:1030F0000022CA6488640198007E811C012000FAC5
:1031000001FC4FEAEC74019AD2F848E0D16CAEFBB6
:103110000C350EFB045E01FB0CE19364D164019954
:10312000097A88400199086501998A6CC86C0B6D11
:10313000A2FB032C00FB03C08A64C8643AE040F29F
:103140000010C2F200000068022832D1FFE740F20E
:10315000F000C2F2000041688DF802109DF80210E4
:1031600001F03F010904019A1161C17A8DF8021042
:103170009DF80230019A116941EA032111614189E8
:103180008DF802109DF80230019A116919431161FE
:103190008068000A8DF8020001980069411CC8048B
:1031A0004A0B0199CA64886401994FF4007008655C
:1031B000FFE7FFE79DF80200C0F380100199487611
:1031C0009DF8020000F03F0040000199887640F22F
:1031D000F000C2F2000081688DF802109DF8023004
:1031E000019A917E41EAD31191769DF8021001F087
:1031F0007F01019AD176C17B8DF802109DF80210F3
:10320000C909019A11779DF80210C1F34111019A81
:1032100051779DF80210C1F38201019A91779DF8D0
:10322000021001F003018900019AD177C1898DF85C
:1032300002109DF80230019AD17F41EA9311D177B3
:103240009DF80210C1F34011019A82F82010019AF2
:10325000002182F821109DF8021001F00101019A6D
:1032600082F82210C168090A8DF802109DF8021038
:10327000C909019A82F823109DF80210C1F3801148
:10328000019A82F824109DF80210C1F34011019AAE
:1032900082F825109DF80210C1F30011019A82F8FE
:1032A00026109DF80210C1F38101019A82F82710BF
:1032B0009DF8021001F00301019A82F82810C068FD
:1032C0008DF802009DF802004008019981F829005C
:1032D0000199012081F82A0040F2E001C2F20001C8
:1032E000CA788DF802209DF80220019B83F82C20DB
:1032F0004A888DF802209DF802201202019BDA858F
:103300000A68120A8DF802209DF802C0019BDA8D2E
:1033100042EA0C02DA850A688DF802209DF8022044
:103320001206019B1A63CA798DF802209DF802C02B
:10333000019B1A6B42EA0C421A63CA888DF802207C
:103340009DF802C0019B1A6B42EA0C221A634A687C
:10335000120A8DF802209DF802C0019B1A6B42EA06
:103360000C021A634A688DF802209DF80220019B26
:1033700083F83420CA7A8DF802209DF80220019B40
:1033800083F835204A898DF802209DF80220120624
:10339000019B9A638A68120A8DF802209DF802C088
:1033A000019B9A6B42EA0C429A638A688DF802206C
:1033B0009DF802C0019B9A6B42EA0C229A63CA7B79
:1033C0008DF802209DF802C0019B9A6B42EA0C0224
:1033D0009A63CA898DF802209DF802C0019B93F878
:1033E0003C2042EA1C1283F83C209DF8022002F0A7
:1033F0000F021202019BDA87CA68120A8DF80220B6
:103400009DF802C0019BDA8F42EA0C02DA87C96894
:103410008DF802109DF802104908019A82F84010B8
:10342000019981F841009DF8030002B0B0BD000091
:1034300080B582B000208DF80600FFF721F9FDF776
:1034400089FEFFF7EDFB00F03DF98DF806009DF8D1
:10345000060028B1FFE79DF806008DF8070047E059
:1034600000F04AF88DF806009DF8060028B1FFE745
:103470009DF806008DF807003AE040F29C10C2F279
:103480000000462101750021016041608160C1603A
:103490000161FFF733FC9DF8060048B9FFE740F2F1
:1034A0001810C2F20000FFF73BFD8DF80600FFE7A1
:1034B0009DF8060060B9FFE740F21810C2F2000064
:1034C000B0F85400000400F029FB8DF80600FFE777
:1034D0009DF8060038B9FFE74FF40060FFF7A0FC45
:1034E0008DF80600FFE79DF806008DF80700FFE75E
:1034F0009DF8070002B080BD80B584B000208DF833
:103500000E000120ADF80C00FFF7E0FB40B9FFE72B
:1035100025208DF80E009DF80E008DF80F00CDE0EF
:1035200040F20010C2F200000068042836D0FFE725
:1035300040F27010C2F200000021016002224260DD
:10354000C0228260C1604FF480610161FFF704FC1A
:10355000FDF7E8FA8DF80E009DF80E0028B1FFE7A0
:103560009DF80E008DF80F00A8E00020FFF7B6FBD5
:1035700040F2E001C2F20001029108600420FFF76E
:10358000ADFB029948600820FFF7A8FB029988600C
:103590000C20FFF7A3FB0299C860FFE740F2001080
:1035A000C2F200000068C0B1FFE740F20010C2F2B2
:1035B00000000068012810D0FFE740F20010C2F2BE
:1035C00000000068062808D0FFE740F20010C2F2B1
:1035D00000000068022821D1FFE740F27010C2F21B
:1035E00000000021016003220192426040228260BB
:1035F000C1604FF480610161FFF7AEFB019803A940
:10360000FDF710FB8DF80E009DF80E0028B1FFE7C6
:103610009DF80E008DF80F0050E0FFE740F200101B
:10362000C2F200000068042840D0FFE7BDF80C009B
:1036300040F21011C2F200010860BDF80C00010454
:1036400040F27010C2F20000016009214160C02107
:1036500081600021C1604FF480610161FFF77CFB54
:10366000FDF760FA8DF80E009DF80E0028B1FFE717
:103670009DF80E008DF80F0020E00020FFF72EFBD4
:1036800040F2F001C2F20001009108600420FFF74F
:1036900025FB009948600820FFF720FB009988600F
:1036A0000C20FFF71BFB0099C860FFE700208DF896
:1036B0000E009DF80E008DF80F00FFE79DF80F003B
:1036C00004B080BD80B58AB0002104918DF8261029
:1036D000089107910691059140F29C10C2F20000FA
:1036E000B2220275016041608160C1600161FFF733
:1036F00005FB0320FFF758FB0120FFF757FA049959
:1037000040F27010C2F20000016041608160C1604F
:103710004FF480610161FFF71FFBFDF7AFF98DF8F2
:1037200026009DF8260028B1FFE79DF826008DF8B9
:103730002700D6E040F27010C2F200004FF4D571BD
:10374000016008214160402181600021C1604FF487
:1037500080610161FFF700FBFDF7EEFA8DF82600AE
:103760009DF8260050B9FFE740F20011C2F20001B7
:10377000012008604FF08040059016E040F2701084
:10378000C2F2000000210160372203924260402211
:103790008260C1604FF480610161FFF7DDFA039838
:1037A000FDF7A2F98DF82600FFE740F27010C2F293
:1037B00000000021016037220292426040228260B4
:1037C000C1604FF480610161FFF7C6FA0298FDF70E
:1037D0008BF98DF826009DF8260000287CD1FFE7A4
:1037E000FFE706990020019049B9FFE707994FF6D6
:1037F000FF720020914238BF01200190FFE701983D
:10380000C00700284CD0FFE740F27010C2F2000061
:103810000021016037220092426040228260C16034
:103820004FF480610161FFF797FA0098FDF75CF9AA
:103830008DF826009DF8260028B1FFE79DF82600A8
:103840008DF827004DE005980021C8F210010143D2
:1038500040F27010C2F20000016029214160402155
:1038600081600021C1604FF480610161FFF774FA4B
:10387000FDF7A0F98DF826009DF8260028B1FFE796
:103880009DF826008DF827002BE00020FFF726FA90
:1038900008900898C00F0690079801300790A0E79D
:1038A00007984FF6FF71884208D3FFE71B208DF879
:1038B00026009DF826008DF8270012E0089800F0F9
:1038C0008040089038B1FFE740F20011C2F20001D9
:1038D00002200860FFE7FFE79DF826008DF827002B
:1038E000FFE79DF827000AB080BD000080B58CB0CE
:1038F00001460E980A9109930892ADF81E00002027
:103900008DF81D0006900A99059140F2BC11C2F293
:103910000001087040F2B811C2F20001086040F2E4
:10392000B411C2F20001086048F22C01C4F2010196
:10393000086040F20010C2F20000006802280DD1B9
:10394000FFE74FF40070ADF81E0008980999400A8F
:1039500040EAC150490A09910890FFE7BDF81E10DE
:1039600040F27010C2F20000016010210491416029
:10397000402181600021C1604FF480610161FFF747
:10398000EBF90498FDF7B0F88DF81D009DF81D00C7
:1039900028B1FFE79DF81D008DF82F00BAE040F236
:1039A0008410C2F200004FF0FF310160BDF81E101C
:1039B0004160902181600221C1600021029101617A
:1039C00001214161FFF7FEF80299089A40F2701058
:1039D000C2F2000002601122039242604022826023
:1039E000C1604FF480610161FFF7B6F90398FDF7FC
:1039F0007BF88DF81D009DF81D0028B1FFE79DF8AC
:103A00001D008DF82F0085E0FFE748F23400C4F276
:103A10000100006840F22A6108421DD1FFE74FF41F
:103A20000040FFF739F9B0B1FFE700200690FFE74B
:103A3000069807280BD8FFE7FFF788F90599069A3B
:103A400041F82200FFE7069801300690F0E705985C
:103A500020300590FFE7D8E70820FFF71DF958B19F
:103A6000FFE70820FFF798F804208DF81D009DF867
:103A70001D008DF82F004DE00220FFF70DF960B119
:103A8000FFE702200190FFF787F801988DF81D00ED
:103A90009DF81D008DF82F003CE02020FFF7FCF87A
:103AA00058B1FFE72020FFF777F806208DF81D00BA
:103AB0009DF81D008DF82F002CE04FF40070FFF7EB
:103AC000EBF860B1FFE74FF40070FFF765F80720EF
:103AD0008DF81D009DF81D008DF82F001AE0FFE7FE
:103AE000FFE7FFE7FFE74FF40010FFF7D5F840B11D
:103AF000FFE7FFF72BF9059908600598043005905A
:103B0000F1E740F2FF50FFF747F89DF81D008DF8F0
:103B10002F00FFE79DF82F000CB080BD80B584B06A
:103B2000039000218DF80B10039A40F27010C2F23E
:103B30000000026007220192426040228260C16060
:103B40004FF480610161FFF707F90198FCF7CCFFA2
:103B50008DF80B009DF80B0004B080BD704700008D
:103B600080B500F001F880BD84B000200390029081
:103B700041F20001C4F20201086840F4803008609C
:103B8000FFE741F20000C4F20200006800F40030D8
:103B90000290039801300390FFE702990020019002
:103BA00039B9FFE70398B0F5A06018BF0120019074
:103BB000FFE70198C0070028E3D1FFE741F20000CA
:103BC000C4F2020000688003002803D5FFE701204B
:103BD000029002E000200290FFE70298012851D1F4
:103BE000FFE742F20001C4F20201086840F0100051
:103BF0000860086820F003000860086840F00200D0
:103C0000086041F20401C4F20201009108680860F2
:103C100008680860086840F480600860086820F45C
:103C20007C100860086840F4E810086041F2000168
:103C3000C4F20201086840F080700860FFE741F2BA
:103C40000000C4F2020000688001002801D4FFE7F0
:103C5000F5E741F20401C4F20201086820F0030014
:103C60000860086840F002000860FFE741F20400C5
:103C7000C4F20200006800F00C00082801D0FFE741
:103C8000F4E700E0FFE704B07047000080B582B0C1
:103C900000900098B0F1807F03D3FFE701200190EE
:103CA0001BE0009820F07F4001384EF21401CEF264
:103CB000000108604FF0FF300F21FEF759FD4EF272
:103CC0001801CEF20001002008604EF21002CEF280
:103CD0000002072111600190FFE7019802B080BD4A
:103CE00080B503F0CFFE07F0C3FF80BD80B541F281
:103CF0000002C4F20202106840F00100106041F2BC
:103D00000401C4F2020108680023CFF6FF03184043
:103D1000086010684FF6FF73CFF6F6631840106026
:103D2000106820F480201060086820F4FE0008600D
:103D300041F20801C4F202014FF41F000860FFF7CE
:103D40000FFF4EF60851CEF200014FF00060086000
:103D500080BD000080B582B044F60000C4F20000CF
:103D600040F2255100F0C2F828B3FFE744F6000006
:103D7000C4F2000000F00AFA8DF807004BF66E70EE
:103D8000C2F20000008840F2FE31884212D8FFE7FC
:103D90009DF807204BF66E70C2F200000388591C94
:103DA00001804BF66D31C2F20001CA540288002036
:103DB0008854FFE7FFE744F60000C4F2000040F239
:103DC000244100F093F870B1FFE744F60000C4F21C
:103DD00000000088009044F60400C4F2000000884F
:103DE00000900098FFE702B080BD000082B0019013
:103DF0008DF803109DF8030030B1FFE70199888921
:103E000040F40050888105E00199888920F4005031
:103E10008881FFE702B0704780B58AB00420009027
:103E200001210491FEF700FD04994FF48040FEF754
:103E3000FBFC4FF40070ADF8240018208DF827002B
:103E400003208DF8260040F60000C4F20100019026
:103E500009A90291FDF7ACF9009A019802994FF473
:103E60008063ADF824308DF82720FDF7A1F94FF4D9
:103E7000E13005900020ADF81800ADF81A00ADF85B
:103E80001C00ADF820000C20ADF81E0043F6000029
:103E9000C4F20100039005A900F0CAF80398049940
:103EA000FFF7A4FF0AB080BD82B00190ADF8021008
:103EB00000208DF80100BDF80200B0F5007F01D1AF
:103EC000FFE7FFE701980088BDF8021008400004F2
:103ED00020B1FFE701208DF8010003E000208DF8FC
:103EE0000100FFE79DF8010002B0704786B0059021
:103EF000ADF8121000200390029001908DF803009D
:103F0000BDF8120040F66A11884201D1FFE7FFE7D1
:103F10009DF8120040090190BDF8120000F01F004A
:103F2000029002990120884002900198012806D150
:103F3000FFE70598818902980840029010E00198F7
:103F4000022806D1FFE70598018A029808400290EE
:103F500005E00598818A029808400290FFE7FFE794
:103F60009DF8130003900399012088400390059861
:103F70000188039808400390029838B1FFE703983E
:103F800020B1FFE701208DF8030003E000208DF849
:103F90000300FFE79DF8030006B0704786B0059068
:103FA000ADF812108DF811200020039002900190BE
:103FB0000090BDF8120040F66A11884201D1FFE777
:103FC000FFE7059800909DF8120040090390BDF8A6
:103FD000120000F01F000290029901208840019019
:103FE0000398012804D1FFE700980C3000900CE002
:103FF0000398022804D1FFE700981030009003E0F6
:10400000009814300090FFE7FFE79DF8110030B1F1
:10401000FFE7019A009908681043086005E0019ADB
:104020000099086890430860FFE706B070470000F9
:1040300080B58CB00B900A910020099008900790F1
:10404000069005900A98808908B1FFE7FFE70B9872
:1040500005900B98008A099009984CF6FF7108406A
:1040600009900A98C18809980843099009980B9902
:1040700008820B988089099009984EF6F311084040
:1040800009900A9988880A89104349890143099847
:104090000843099009980B9988810B98808A0990A8
:1040A00009984FF6FF41084009900A9881890998BC
:1040B0000843099009980B9988826846FEF7D0FB5F
:1040C000059843F60001C4F20101884203D1FFE7DD
:1040D0000398089002E002980890FFE70B98808907
:1040E000000400280AD5FFE70898192148430A99D7
:1040F00009684900B0FBF1F0079009E00898192120
:1041000048430A9909688900B0FBF1F00790FFE77E
:10411000079848F21F51C5F2EB11A0FB01016FF0A7
:104120000F0000EA51000990079A099800096421DC
:1041300000FB112006900B9880890004002810D500
:10414000FFE70699322000EBC10048F21F51C5F28B
:10415000EB11A0FB0110C0F342110998084309902C
:104160000FE00699322000EB011048F21F51C5F212
:10417000EB11A0FB0110C0F343110998084309900B
:10418000FFE709980B9908810CB080BD81B00090C1
:10419000009880886FF35F2001B0704782B0019073
:1041A000ADF80210BDF802006FF35F20019988801E
:1041B00002B07047FFE7FEE783B002900020019055
:1041C000FFE701980299884211D2FFE70C208DF891
:1041D0000300FFE79DF80300411E8DF8031008B1AE
:1041E000FFE7F7E7FFE7019801300190E9E703B047
:1041F0007047000080B594B01390129101208DF8A3
:1042000047000DF13E0000F01DF9002800F0B380DA
:10421000FFE7129840F20601C2F200010791097807
:1042200001EB410100EBC102029250F83100049011
:10423000BDF93E00BDF940100191FCF7BAF9014605
:1042400001980391FCF7B5F9029A0146506892680B
:104250000692FCF7A5F80399024604980592FCF72C
:104260009FF80599FCF744F80699FCF741F8FCF72C
:10427000AEF90799ADF83C001298097801EB4101BD
:1042800000EBC1000990BDF93E00BDF94010089156
:10429000FCF78FF9014608980A91FCF78AF9099A08
:1042A0000146D0680B90106952690D92FCF778F8BE
:1042B0000A9902460B980C92FCF772F80C99FCF7DD
:1042C00017F80D99FCF714F8FCF781F9ADF83A00EE
:1042D000BDF93C00B0F1FF3F04DCFFE70020ADF882
:1042E0003C00FFE7BDF93A00B0F1FF3F04DCFFE717
:1042F0000020ADF83A00FFE7BDF93C0040F20801AC
:10430000C2F20001B1F90010884209DBFFE740F278
:104310000800C2F2000000880138ADF83C00FFE759
:10432000BDF93A0040F20A01C2F20001B1F90010F1
:10433000884209DBFFE740F20A00C2F20000008871
:104340000138ADF83A00FFE740F20800C2F2000081
:104350000188BDF83C00C04308441399088040F22E
:104360000A00C2F200000188BDF83A00C0430844C8
:104370001399488003E000208DF84700FFE79DF87F
:10438000470014B080BD000080B588B060200121D6
:104390000091FEF749FA0098ADF81C008DF81E0058
:1043A000102003908DF81F0041F60000C4F20100B8
:1043B000059007A90691FCF7FBFE059806990422D3
:1043C000ADF81C20FCF7F4FE009A05980699082326
:1043D000ADF81C308DF81E20482204928DF81F2065
:1043E000FCF7E6FE009A039806994FF400530293F7
:1043F000ADF81C308DF81E208DF81F0041F20040F2
:10440000C4F201000190FCF7D3FE01980299FCF779
:10441000ADFF039B049A05980699ADF81C308DF802
:104420001F20FCF7C5FE08B080BD000080B582B03B
:104430008DF807009DF8070000F09AFA00F042F9A5
:1044400002B080BD80B594B0129000208DF8470076
:104450000DF11A002821FBF7DFFEFFE711A80DF18F
:10446000420100F013F9BDF844009DF847200DF11A
:104470001A0121F81200BDF842009DF8472001EB17
:10448000420188829DF8470001308DF84700FFE720
:1044900041F60000C4F201001021FCF74DFF014677
:1044A0000020019041B9FFE79DF8471000200A293C
:1044B000B8BF01200190FFE70198C0070028CDD1C7
:1044C000FFE741F60000C4F201001021FCF734FFC1
:1044D00038B1FFE74BF29271C2F200010020087080
:1044E000FFE79DF847000A2840F0C780FFE7BDF9C5
:1044F0001A0005900490BDF92E000390029001204F
:104500008DF84600FFE79DF8460009282CDCFFE700
:104510009DF846100DF11A0030F9110005998842F6
:1045200008DAFFE79DF846100DF11A0030F9110086
:10453000059012E09DF846100DF11A0030F91100B7
:104540000499884208DDFFE79DF846100DF11A0036
:1045500030F911000490FFE7FFE7FFE79DF8460000
:1045600001308DF84600CEE701208DF84600FFE7C8
:104570009DF84600092834DCFFE79DF846100DF150
:104580001A0000EB4100B0F91400039988420ADADE
:10459000FFE79DF846100DF11A0000EB4100B0F95D
:1045A0001400039016E09DF846100DF11A0000EB80
:1045B0004100B0F91400029988420ADDFFE79DF836
:1045C00046100DF11A0000EB4100B0F91400029002
:1045D000FFE7FFE7FFE79DF8460001308DF8460052
:1045E000C6E7BDF91A00BDF91C30BDF91E20BDF9A2
:1045F0002010184410440844BDF922100844BDF9A5
:1046000024100844BDF926100844BDF928100844B8
:10461000BDF92A100844BDF92C1008440599401A28
:104620000499401AC00812990880BDF92E00BDF9FE
:104630003030BDF93220BDF934101844104408441C
:10464000BDF936100844BDF938100844BDF93A10D8
:104650000844BDF93C100844BDF93E100844BDF9BA
:10466000401008440399401A0299401AC008129950
:10467000488001208DF84F0003E000208DF84F00A6
:10468000FFE79DF84F0014B080BD000080B584B0F6
:10469000039002919020FFF7C9FEADF806000120BB
:1046A000FFF78AFDD020FFF7C1FEADF80400BDF88A
:1046B000060003990880BDF804000299088004B040
:1046C00080BD000080B586B000200390ADF81400D6
:1046D00041F60000C4F2010002900421FCF746FEFE
:1046E00002980121FCF74CFE03988DF81700FFE7B4
:1046F0009DF817000B2828DCFFE741F60000C4F204
:104700000100019001210091FCF730FE0198082181
:10471000FCF712FE009902460198ADF81220BDF890
:1047200012209DF81730C3F10B0302FA03F3BDF812
:1047300014201A43ADF81420FCF722FEFFE79DF881
:10474000170001308DF81700D2E7BDF8140006B04D
:1047500080BD000080B582B000208DF8070040F2D7
:10476000C410C2F2000000780146009140B1FFE79A
:104770000098012821D0FFE7009802285BD077E05D
:1047800041F60000C4F201001021FCF7D5FD50B93C
:10479000FFE740F2C411C2F20001012008700020BE
:1047A0008DF8070008E040F2C411C2F200010020B9
:1047B00008708DF80700FFE763E041F60000C4F2DF
:1047C00001001021FCF7B8FD30BBFFE740F2C0103C
:1047D000C2F200000168013101600068032810D3B3
:1047E000FFE740F2C011C2F200010020086040F271
:1047F000C411C2F200010220087001208DF80700E8
:1048000009E040F2C411C2F200010120087000204A
:104810008DF80700FFE70DE040F2C011C2F2000181
:104820000020086040F2C411C2F2000108708DF847
:104830000700FFE725E041F60000C4F20100102167
:10484000FCF77AFD50B9FFE740F2C411C2F2000153
:104850000220087001208DF8070008E040F2C41122
:10486000C2F20001002008708DF80700FFE708E0A1
:1048700040F2C411C2F20001002008708DF8070058
:10488000FFE79DF8070002B080BD000080B582B050
:104890000190019803F044F902B080BD80B582B068
:1048A000FFF758FF01282CD1FFE740F2C511C2F2F3
:1048B00000010120087040F61041C4F201012022DD
:1048C0000A6040F61442C4F201021060022008603F
:1048D00040F21000C2F2000040F21C01C2F20001DE
:1048E000FFF788FCFFE7FFE740F21000C2F200008C
:1048F0000190FFF7CBFF0199088888804888C8801D
:104900002CE040F61041C4F2010120200860012093
:10491000086040F61441C4F201010220086040F230
:10492000C510C2F20000007868B1FFE740F2C5117F
:10493000C2F200010020087040F21000C2F2000034
:1049400000F00EF8FFE740F21001C2F200014FF64E
:10495000FF70088048808880C880FFE702B080BD73
:1049600080B582B00190019803F0AAF902B080BD31
:1049700080B586B08DF8170041F60000C4F2010042
:1049800004900421FCF7F2FC04980121FCF7EEFCF2
:1049900000208DF81600FFE79DF81600072835DC8B
:1049A000FFE79DF817009DF81610C1F10701C840F8
:1049B000C00740B1FFE741F60000C4F20100042146
:1049C000FCF7DEFC07E041F60000C4F20100042120
:1049D000FCF7CCFCFFE705200190FFF7EDFB41F66B
:1049E0000000C4F20100029001210391FCF7C8FC11
:1049F0000198FFF7E1FB02980399FCF7B7FCFFE78A
:104A00009DF8160001308DF81600C5E706B080BD90
:104A100072B6704762B6704780B584B000210291CB
:104A20000846FDF7CFFD029840F20801C2F20001EE
:104A30000A886B46012103911960E6210A23FCF7DD
:104A400073FF03986946086045F6E472C0F60202F7
:104A50000820E82147F6FF7301F070F840F2F030CB
:104A6000C2F20000007804280ED1FFE76946012059
:104A7000086046F25702C0F602025820E8214FF6BD
:104A8000E07301F05BF820E001F044FE70B9FFE74D
:104A900069460120086046F25E02C0F60202582014
:104AA000E8214FF4FC6301F049F80DE0694601206C
:104AB000086046F25002C0F602025820E8214FF684
:104AC000E07301F03BF8FFE7FFE740F2F030C2F29D
:104AD0000000007802280ED1FFE769460120086037
:104AE00045F6FA72C0F60202A820E8214FF6E073FC
:104AF00001F024F83BE040F2F030C2F20000007810
:104B000003280ED1FFE769460120086046F26E02D5
:104B1000C0F60202A820E8214FF6E07301F00EF87B
:104B200024E040F2F030C2F20000007804280ED1F8
:104B3000FFE769460120086045F6F372C0F60202FD
:104B4000A820E8214FF6E07300F0F8FF0DE0694679
:104B50000120086045F6EC72C0F60202A820E821A8
:104B60004FF6FF7300F0EAFFFFE7FFE7FFE704B04F
:104B700080BD000080B540F2F030C2F20000007845
:104B800002280AD1FFE7012000F03EF845F68860D0
:104B9000C0F6020007F0D8F834E040F2F030C2F27C
:104BA0000000007803280AD1FFE7022000F02CF86B
:104BB00045F66B60C0F6020007F0C6F821E040F24F
:104BC000F030C2F20000007804280AD1FFE7032089
:104BD00000F01AF845F65160C0F6020007F0B4F88C
:104BE0000EE040F2F031C2F200010020087000F047
:104BF0000BF845F6DA60C0F6020007F0A5F8FFE70B
:104C0000FFE7FFE780BD000080B582B08DF80700A8
:104C10009DF8070002F048FE01F04EFEFFF7FCFE93
:104C2000FDF7A8FC02B080BD80B582B046F26500F9
:104C3000C0F6020047F6FF7100F0D6F845F62E5098
:104C4000C0F6020007F080F840F2C810C2F200007F
:104C500045F6E171C0F60201012204F0C5F88DF8B5
:104C600006009DF80600A0B1FFE746F23100C0F64D
:104C700002004FF4784100F0B7F89DF8061045F6B1
:104C8000B650C0F6020007F05FF800208DF807006C
:104C900058E046F23F00C0F6020004F021FD8DF816
:104CA0000500002003F01EFE8DF804009DF80500AD
:104CB000B0B9FFE746F22800C0F602004FF4784191
:104CC00000F092F845F67F70C0F6020046F23F0110
:104CD000C0F6020107F038F800208DF8070031E037
:104CE0009DF8040090B9FFE746F21F00C0F60200ED
:104CF0004FF4784100F078F845F6F960C0F602000C
:104D000007F022F800208DF807001BE046F20900AA
:104D1000C0F602004FF4FC6100F066F845F65A70E8
:104D2000C0F6020046F23F01C0F6020107F00CF89F
:104D300045F69D70C0F6020007F006F801208DF8D8
:104D40000700FFE79DF8070002B080BD80B582B084
:104D500045F6BE60C0F6020006F0F6FF44F6D150FC
:104D6000C0F6000005F0AEFD8DF807009DF80700C5
:104D700048B9FFE745F65550C0F6020006F0E4FFDB
:104D8000FDF7F8FB22E069460120086046F20102C7
:104D9000C0F602020820D82147F6FF7300F0CEFECD
:104DA000FDF7E8FBFFE740F60000C4F20100012137
:104DB000FDF78EFB18B9FFE706F0F0FAF3E745F6CA
:104DC000A260C0F6020006F0BFFFFFE702B080BDA0
:104DD00080B506F0E3FA40F60000C4F201000121BC
:104DE000FDF776FB80BD000080B586B00590ADF87C
:104DF000121000200190FDF7D9FB019940F2080044
:104E0000C2F20000028840F20A00C2F200000388E9
:104E10000846FCF77BFB694602200290086046F2D8
:104E20007402C0F602021420039046214FF6FF736D
:104E300000F084FE02990398059ABDF81230EC4602
:104E4000CCF800106E2100F079FE06B080BD0000A5
:104E500080B582B040F2F030C2F20000007878B93C
:104E6000FFE740F2F031C2F2000101910120087029
:104E7000FFF76CFF019902200870FFF77BFE35E019
:104E800040F2F030C2F200000078022809D1FFE7BA
:104E900040F2F031C2F2000103200870FFF76AFE11
:104EA00023E040F2F030C2F200000078032809D17C
:104EB000FFE740F2F031C2F2000104200870FFF772
:104EC00059FE11E040F2F030C2F2000000780428F0
:104ED00009D1FFE740F2F031C2F200010020087072
:104EE000FFF748FEFFE7FFE7FFE7FFE702B080BDFF
:104EF00080B540F2F030C2F200000078042807D1FB
:104F0000FFE745F62D60C0F6020006F01DFF25E024
:104F100001F000FCA8B9FFE703F0E2FC38B9FFE7B5
:104F200045F6D250C0F6020006F00EFF16E0012052
:104F300002F0D4FC45F67A50C0F6020006F004FFF9
:104F400009E0002002F0CAFC45F69850C0F60200C5
:104F500006F0FAFEFFE7FFF70DFEFFE780BD000059
:104F600080B582B0019000910198009902F0C2FCD6
:104F700002B080BD80B584B00290019102990020FA
:104F8000087102994FF0FF3048620298019904F0CD
:104F900049FF20B1FFE703208DF80F003FE00298A2
:104FA000B0F826024AF65521884204D0FFE70220D5
:104FB0008DF80F0033E0029890F85E1090F85F20B3
:104FC00090F86000000440EA0220084420F07F408E
:104FD00044F24611C0F25401884204D1FFE7002098
:104FE0008DF80F001BE0029890F87A1090F87B2063
:104FF00090F87C00000440EA0220084420F07F4042
:1050000044F24611C0F25401884204D1FFE7002067
:105010008DF80F0003E001208DF80F00FFE79DF8E9
:105020000F0004B080BD000083B002900191FFE743
:10503000029801780020009041B1FFE702980078C3
:105040000199401A18BF01200090FFE70098C0079F
:1050500020B1FFE7029801300290E9E7029800785A
:1050600003B0704783B0019000910098023800901F
:1050700000980199C9680239884203D3FFE70020EC
:10508000029007E00098019A9178126A00FB0120D3
:105090000290FFE7029803B07047000080B58AB025
:1050A00008900791079800680190FFE70198017840
:1050B00001202F29009008D0FFE7019800785C3884
:1050C000B0FA80F040090090FFE70098C00728B1CF
:1050D000FFE7FFE7019801300190E7E70898806952
:1050E0000590059820210B2204F088FE00208DF801
:1050F0001B000290039008200490FFE70198039999
:105100004A1C0392405C8DF81A009DF81A00212871
:105110000ADBFFE79DF81A002F2805D0FFE79DF86E
:105120001A005C2801D1FFE76DE09DF81A002E28D7
:1051300005D0FFE702980499884217D3FFE7049847
:10514000082805D1FFE79DF81A002E2804D0FFE7B4
:1051500006208DF82700A2E0082002900B20049082
:105160009DF81B0080008DF81B00C7E79DF81A0012
:1051700080280ADBFFE79DF81B0040F003008DF854
:105180001B0006208DF8270089E09DF81A1046F6CE
:105190003610C0F60200FFF747FF20B1FFE70620F8
:1051A0008DF827007BE09DF81A0041280CDBFFE713
:1051B0009DF81A005A2807DCFFE79DF81B0040F015
:1051C00002008DF81B0016E09DF81A00612811DB23
:1051D000FFE79DF81A007A280CDCFFE79DF81B001A
:1051E00040F001008DF81B009DF81A0020388DF862
:1051F0001A00FFE7FFE79DF81A000599029A531C71
:10520000029388547AE70198039908440799086043
:105210009DF81A1000202129B8BF012080008DF8C8
:105220001A00029820B9FFE706208DF8270036E023
:1052300005980078E52804D1FFE705990520087056
:10524000FFE70498082806D1FFE79DF81B008000BF
:105250008DF81B00FFE79DF81B0000F003000128FC
:1052600007D1FFE79DF81A0040F010008DF81A00F2
:10527000FFE79DF81B0000F00C00042807D1FFE7B2
:105280009DF81A0040F008008DF81A00FFE79DF81D
:105290001A000599C87200208DF82700FFE79DF8D5
:1052A00027000AB080BD000082B00190019800285C
:1052B00003D4FFE70198009003E00198404200907A
:1052C000FFE7009802B0704780B588B0ADF81E00C7
:1052D000ADF81C10ADF81A20ADF81830BDF91A0061
:1052E000BDF91E10401AFFF7DFFF0590BDF9180049
:1052F000BDF91C10401AFFF7D7FF0490BDF91E102E
:10530000BDF91A204FF0FF3091420146B8BF01218C
:105310000391BDF91C10BDF918209142B8BF0120BE
:10532000029005980499401A0190FFE7BDF91E000C
:10533000BDF91C1000F036F8BDF91E00BDF91A10B9
:10534000884208D1FFE7BDF91C00BDF9181088425A
:1053500001D1FFE724E001984000009000980499F3
:10536000494288420BDDFFE704990198401A0190F9
:10537000BDF81E0003990844ADF81E00FFE7009831
:10538000059988420BDAFFE70599019808440190D6
:10539000BDF81C0002990844ADF81C00FFE7C5E702
:1053A00008B080BD80B584B0ADF80E00ADF80C102B
:1053B000BDF90E00BDF90C1001F0ACFA08B9FFE719
:1053C000C2E0BDF90E00C0EBC0014FF6D050CFF6E1
:1053D000FF7000EBC10048F21F51C5F2EB1180FBDA
:1053E0000102900900EBD270ADF80A00BDF90C0083
:1053F000C0EBC0024FF67010CFF6FF7000EBC2009A
:1054000080FB0101880900EBD170ADF808004FF670
:10541000FF70ADF80400FFE7BDF90400012800F3B8
:105420009380FFE74FF6FF70ADF80600FFE7BDF988
:105430000600012800F38180FFE7BDF80A00BDF8EF
:1054400006100844ADF80200BDF80800BDF80410CD
:105450000844ADF80000BDF90200002866D4FFE75B
:10546000BDF90200372861DCFFE7BDF90000002824
:105470005CD4FFE7BDF90000372857DCFFE7BDF932
:105480000000C0EBC001BDF9020000EBC1024AF20E
:105490000371C2F20001FF2088549DF8020040F21F
:1054A0001801C2F200010978884208DAFFE79DF886
:1054B000020040F21801C2F200010870FFE79DF8F7
:1054C000000040F21901C2F200010978884208DAAE
:1054D000FFE79DF8000040F21901C2F200010870D8
:1054E000FFE79DF802004AF2DA01C2F200010978F2
:1054F000884208DDFFE79DF802004AF2DA01C2F2B5
:1055000000010870FFE79DF800004AF2DB01C2F2DB
:1055100000010978884208DDFFE79DF800004AF2A3
:10552000DB01C2F200010870FFE7FFE7FFE7BDF80B
:1055300006000130ADF8060079E7FFE7BDF804008A
:105540000130ADF8040067E704B080BD80B582B0DB
:105550008DF807004BF24430C2F2000000781A28A0
:1055600010D3FFE74BF24530C2F200000090411C1F
:105570001922FAF72AFE00999DF8070048760020C4
:10558000887612E09DF807204BF24430C2F200000A
:1055900003784BF24531C2F20001CA54027801325D
:1055A0000270027800208854FFE702B080BD00003E
:1055B00080B586B0002005900490ADF80E008DF8FF
:1055C0000C00FFE79DF80C001B2837DCFFE70020EC
:1055D0008DF80D00FFE79DF80D001B2827DCFFE785
:1055E0009DF80C00C0EBC0019DF80D0000EB81019F
:1055F0004AF2DC00C2F20000405C012810DBFFE749
:105600009DF80D100598084405909DF80C1004981D
:1056100008440490BDF80E000130ADF80E00FFE71D
:10562000FFE79DF80D0001308DF80D00D3E7FFE78F
:105630009DF80C0001308DF80C00C3E7BDF80E009A
:1056400008B9FFE7A1E00598BDF80E1000EB510086
:10565000B0FBF1F0C0F10E008DF80B000498BDF81E
:105660000E1000EB5100B0FBF1F0C0F10E008DF810
:105670000A009DF90B0028B9FFE79DF90A0008B957
:10568000FFE782E04AF2EC30C2F200004FF44471CE
:10569000FAF7C2FD00208DF80C00FFE79DF80C0022
:1056A0001B2865DCFFE700208DF80D00FFE79DF863
:1056B0000D001B2855DCFFE79DF80C00C0EBC00176
:1056C0009DF80D0000EB81014AF2DC00C2F20000FF
:1056D000405C01283EDBFFE79DF80D009DF90B10B3
:1056E0000844ADF808009DF80C009DF90A10084424
:1056F000ADF80600BDF9080000282AD4FFE7BDF97F
:1057000008001B2825DCFFE7BDF90600002820D48F
:10571000FFE7BDF906001B281BDCFFE79DF80C0026
:10572000C0EBC0019DF80D0000EB81014AF2DC00E6
:10573000C2F20000405CBDF90610C1EBC102BDF928
:10574000081001EB82024AF2EC31C2F200018854E7
:10575000FFE7FFE7FFE79DF80D0001308DF80D0032
:10576000A5E7FFE79DF80C0001308DF80C0095E7E8
:105770004AF2DC00C2F200004AF2EC31C2F200014F
:105780004FF44472FAF721FDFFE706B080BD000038
:1057900080B582B04AF20370C2F200004FF4446157
:1057A000FAF73AFD4AF2DC00C2F200004FF444710D
:1057B0000191FAF731FD01994AF2EC30C2F2000092
:1057C000FAF72AFD4AF2D001C2F200010020087067
:1057D0004AF20171C2F20001087040F21802C2F2EE
:1057E00000023821117040F21902C2F20002117059
:1057F0004AF2DA01C2F2000108704AF2DB01C2F299
:10580000000108704AF20271C2F2000108704BF206
:105810004331C2F2000108704AF2D201C2F2000123
:1058200008804AF2FC61C2F2000108704BF260315C
:10583000C2F20001088002B080BD000080B584B0D3
:105840004FF6FF7000210391FCF7BCFE6946012072
:1058500008600B201F21C6231A46FCF765F8039841
:10586000694608600A2002901E210191C8231A4649
:10587000FCF75AF803994FF2DE70FCF7A3FE01998A
:105880006E22E6231046FBF7B7FF0298D22282234E
:105890001946FBF7B1FF03994FF4FC60FCF792FE49
:1058A00004B080BD80B586B0002102910846FCF7A7
:1058B00089FE40F20A00C2F20000008824386A46DD
:1058C0000121116083B2E820039024210491562223
:1058D0000592FCF729F802994FF6FF70FCF772FE6B
:1058E000029B03980499059AEC46CCF800304C23AF
:1058F000FCF71AF806B080BD4BF24531C2F2000148
:105900000020C1F8170048610861C86088604860DD
:1059100008604BF24431C2F2000108704BF264712E
:10592000C2F2000108704BF28071C2F200010882DD
:10593000C8608860486008607047000080B586B025
:10594000002101910846FCF73DFE694601200860F0
:10595000EA200290B02103914E2204921023059375
:10596000FBF7E2FF01994FF6FF70FCF72BFEDDF825
:1059700004C002980399049A059BEE46CEF800C035
:10598000FBF7D2FF06B080BD83B002904BF264718A
:10599000C2F200010020C1F8170048610861C86028
:1059A000886048600860029808B9FFE74AE0002074
:1059B0008DF80700FFE79DF80710002019290090D7
:1059C00009D8FFE702989DF80710405C002818BF2F
:1059D00001200090FFE70098C00750B3FFE702984E
:1059E0009DF80710405C8DF806009DF80600202801
:1059F0000FDBFFE79DF806007E280ADCFFE79DF835
:105A000006009DF807204BF26471C2F20001885431
:105A100008E09DF807204BF26471C2F200013F20BC
:105A20008854FFE7FFE79DF8070001308DF8070075
:105A3000C1E79DF807204BF26471C2F2000100201B
:105A40008854FFE703B0704783B04EF6FC50CEF2A7
:105A50000000029041F20000CEF20000019041F2FD
:105A60000400CEF2000000900299086840F08070B7
:105A700008600099002008600199086840F0010062
:105A8000086003B07047000081B041F20400CEF21C
:105A9000000000900098006801B0704780B584B0A5
:105AA0004BF26471C2F20001002008704BF24430E6
:105AB000C2F20000007878B1FFE74BF24430C2F246
:105AC000000001780139017002784BF24531C2F2D1
:105AD0000001002088540AE04BF26470C2F200001A
